:100000000C9462000C948A000C948A000C948A0070
:100010000C948A000C948A000C948A000C948A0038
:100020000C948A000C948A000C948A000C948A0028
:100030000C948A000C948A000C948A000C948A0018
:100040000C94E1030C948A000C94AF030C94890384
:100050000C948A000C948A000C948A000C948A00F8
:100060000C948A000C948A000000000024002700F1
:100070002A0000000000250028002B0000000000DE
:1000800023002600290004040404040404040202DA
:100090000202020203030303030301020408102007
:1000A0004080010204081020010204081020000012
:1000B0000008000201000003040700000000000027
:1000C0000000820511241FBECFEFD8E0DEBFCDBFF8
:1000D00011E0A0E0B1E0ECEBFBE002C005900D9276
:1000E000A236B107D9F722E0A2E6B1E001C01D9225
:1000F000A031B207E1F710E0C2E6D0E004C02197DA
:10010000FE010E94D105C136D107C9F70E942B0418
:100110000C94DC050C940000CF92DF92EF92FF92DA
:100120000F931F93CF93DF936C017A018B01C0E093
:10013000D0E0CE15DF0589F0D8016D918D01D60193
:10014000ED91FC910190F081E02DC6010995892B7C
:1001500011F47E0102C02196ECCFC701DF91CF914F
:100160001F910F91FF90EF90DF90CF900895089529
:1001700080E090E00895FC01538D448D252F30E000
:10018000842F90E0821B930B541710F0CF960895A4
:1001900001970895FC01918D828D981761F0828DF1
:1001A000DF01A80FB11D5D968C91928D9F5F9F73AB
:1001B000928F90E008958FEF9FEF0895FC01918D4D
:1001C000828D981731F0828DE80FF11D858D90E0BA
:1001D00008958FEF9FEF0895FC01918D228D892F57
:1001E00090E0805C9F4F821B91098F73992708953F
:1001F00083E791E00E94EC0021E0892B09F420E0E4
:10020000822F0895FC01848DDF01A80FB11DA35A30
:10021000BF4F2C91848D90E001968F739927848F26
:10022000A689B7892C93A089B1898C9180648C931D
:10023000938D848D981306C00288F389E02D808108
:100240008F7D80830895EF92FF920F931F93CF933A
:10025000DF93EC0181E0888F9B8D8C8D981305C016
:10026000E889F989808185FD24C0F62E0B8D10E088
:100270000F5F1F4F0F731127E02E8C8DE8120CC0FB
:100280000FB607FCFACFE889F989808185FFF5CFA1
:10029000CE010E940201F1CF8B8DFE01E80FF11D0E
:1002A000E35AFF4FF0820B8FEA89FB8980818062DD
:1002B00007C0EE89FF896083E889F98980818064BD
:1002C000808381E090E0DF91CF911F910F91FF90AB
:1002D000EF900895CF93DF93EC01888D8823C9F0C8
:1002E000EA89FB89808185FD05C0A889B9898C913F
:1002F00086FD0FC00FB607FCF5CF808185FFF2CFDA
:10030000A889B9898C9185FFEDCFCE010E940201A9
:10031000E7CFDF91CF91089580E090E0892B29F01D
:100320000E94F80081110C9400000895833081F040
:1003300028F4813099F08230A1F008958730A9F037
:100340008830B9F08430D1F4809180008F7D03C073
:10035000809180008F7780938000089584B58F7797
:1003600002C084B58F7D84BD08958091B0008F77E1
:1003700003C08091B0008F7D8093B0000895CF932B
:10038000DF93282F30E0F901E255FF4F8491F90106
:10039000E656FF4FD491F901EA57FF4FC491CC23A1
:1003A00091F081110E949601EC2FF0E0EE0FFF1FFB
:1003B000E458FF4FA591B491EC91ED2381E090E0DA
:1003C00021F480E002C080E090E0DF91CF910895B9
:1003D0001F93CF93DF93282F30E0F901E255FF4FB1
:1003E0008491F901E656FF4FD491F901EA57FF4F86
:1003F000C491CC23C9F0162F81110E949601EC2FD5
:10040000F0E0EE0FFF1FEE58FF4FA591B4918FB7AC
:10041000F894111105C09C91ED2FE095E92302C0DD
:10042000EC91ED2BEC938FBFDF91CF911F9108954D
:10043000CF93DF9390E0FC01E656FF4F2491FC013F
:10044000EA57FF4F8491882361F190E0880F991F4C
:10045000FC01E859FF4FC591D491FC01EE58FF4FC4
:10046000A591B491611109C09FB7F8948881209536
:1004700082238883EC912E230BC0623061F49FB7F6
:10048000F8943881822F809583238883EC912E2BDA
:100490002C939FBF06C08FB7F894E8812E2B28833A
:1004A0008FBFDF91CF9108953FB7F8948091670196
:1004B00090916801A0916901B0916A0126B5A89B4D
:1004C00005C02F3F19F00196A11DB11D3FBFBA2FE6
:1004D000A92F982F8827820F911DA11DB11DBC0146
:1004E000CD0142E0660F771F881F991F4A95D1F70B
:1004F0000895009769F0FC0101900020E9F7319719
:10050000AF01481B590BBC0183E791E00C948C00B0
:1005100080E090E008958F929F92AF92BF920F93E8
:100520001F93CF93DF93CDB7DEB7A1970FB6F894A3
:10053000DEBF0FBECDBF19A2423008F44AE08E01E3
:100540000F5D1F4F842E912CA12CB12CA50194017D
:100550000E94AF05E62FB901CA0101501109EA3026
:1005600014F4E05D01C0E95CD801EC93232B242B4B
:10057000252B61F7C8010E947902A1960FB6F89465
:10058000DEBF0FBECDBFDF91CF911F910F91BF9006
:10059000AF909F908F900895CF92DF92EF92FF924D
:1005A000CF93DF936B017C01E0917301F0917401B3
:1005B0000190F081E02D6DE283E791E00995EC0177
:1005C00066277727CB016C197D098E099F094AE0C0
:1005D0000E948B028C0F9D1FDF91CF91FF90EF90B7
:1005E000DF90CF900895CF93DF93BC01990F880BD4
:1005F000990B97FF03C00E94CC0203C04AE00E94FF
:100600008B02EC0182E191E00E9479028C0F9D1F28
:10061000DF91CF9108956F927F928F929F92AF92C8
:10062000BF92CF92DF92EF92FF920F931F93CF93DF
:10063000DF93CDB7DEB78C01CDB6DEB66090710129
:10064000709072018DB79EB7861997090FB6F8940E
:100650009EBF0FBE8DBFEDB7FEB731967F01909064
:100660006F0161E0892D0E94E8015701C5018E19D3
:100670009F098615970594F480916D010E94BF0132
:10068000F50181935F0180906B0161E0882D0E94EC
:10069000E80160E0882D0E94E801E8CF60E0892D44
:1006A0000E94E80173E0000F111F7A95E1F720E046
:1006B00030E041E050E080E090E02830310599F0F2
:1006C000F901E00FF11FEE0DFF1DE0816E2F6403B5
:1006D000D001659FB00D11248A0F9B1F440F551F39
:1006E0002F5F3F4FEACF0FB6F894DEBE0FBECDBEF0
:1006F000DF91CF911F910F91FF90EF90DF90CF90FE
:10070000BF90AF909F908F907F906F9008950E94C0
:10071000D7051F920F920FB60F9211242F933F937C
:100720004F935F936F937F938F939F93AF93BF93F9
:10073000EF93FF9383E791E00E940201FF91EF9115
:10074000BF91AF919F918F917F916F915F914F91E9
:100750003F912F910F900FBE0F901F9018951F92F1
:100760000F920FB60F9211242F938F939F93EF93B5
:10077000FF93E0918301F09184018081E0918901F0
:10078000F0918A0182FD12C0908180918C018F5F6F
:100790008F7320918D01821751F0E0918C01F0E070
:1007A000ED58FE4F958F80938C0101C08081FF91A1
:1007B000EF919F918F912F910F900FBE0F901F90EF
:1007C00018951F920F920FB60F9211242F933F93FB
:1007D0008F939F93AF93BF93809163019091640136
:1007E000A0916501B09166013091620123E0230F71
:1007F0002D3720F40196A11DB11D05C026E8230F59
:100800000296A11DB11D2093620180936301909314
:100810006401A0936501B093660180916701909196
:100820006801A0916901B0916A010196A11DB11DF5
:100830008093670190936801A0936901B0936A0166
:10084000BF91AF919F918F913F912F910F900FBECC
:100850000F901F901895CF93DF93CDB7DEB77894A4
:1008600084B5826084BD84B5816084BD85B58260B5
:1008700085BD85B5816085BD80916E008160809366
:100880006E001092810080918100826080938100CF
:1008900080918100816080938100809180008160DF
:1008A000809380008091B10084608093B10080913A
:1008B000B00081608093B00080917A008460809362
:1008C0007A0080917A00826080937A0080917A0029
:1008D000816080937A0080917A00806880937A00AA
:1008E0001092C10082E090E090936C0180936B01C4
:1008F00083E090E09093700180936F0184E090E03A
:1009000090936E0180936D0161E082E00E94180275
:1009100061E083E00E94180260E084E00E94180217
:1009200060E082E00E94E80160E083E00E94E8016C
:1009300080E190E09093720180937101E0918301D6
:10094000F091840182E08083E0917F01F091800149
:100950001082E0918101F09182018FEC80831092EE
:100960008B01E0918701F091880186E08083E0911E
:100970008501F0918601808180618083E09185010D
:10098000F0918601808188608083E0918501F091FB
:100990008601808180688083E0918501F0918601E5
:1009A00080818F7D808385E191E00E947902412CD6
:1009B000512C3201720182E191E00E9479024AE0F9
:1009C000C301B2010E948B028DB69EB6A090710148
:1009D000B09072018DB79EB78A199B090FB6F89433
:1009E0009EBF0FBE8DBFEDB7FEB731966F01309041
:1009F0006F0161E0832D0E94E8018601C8018C1916
:100A00009D098A159B0594F480916D010E94BF0198
:100A1000F80181938F0120906B0161E0822D0E948B
:100A2000E80160E0822D0E94E801E8CF60E0832DBC
:100A30000E94E801F601EE0DFF1D80810FB6F894CB
:100A40009EBE0FBE8DBE882319F08EE191E002C0DC
:100A50008FE291E00E947902FFEF4F1A5F0A6F0A5E
:100A60007F0A20E1421651046104710409F0A2CF0B
:100A700082E191E00E94790281E491E00E94790292
:100A800082E191E00E94790280E090E00E940B03F5
:100A90000E94F30281E591E00E94790282E191E0F7
:100AA0000E94790281E090E00E940B030E94F30211
:100AB0000E9454024B015C0188E8C82E83E1D82EC5
:100AC000E12CF12C0E945402DC01CB018819990918
:100AD000AA09BB09883E9340A105B10558F081E001
:100AE000C81AD108E108F10898EE890E93E0991E22
:100AF000A11CB11CC114D104E104F10419F70E9436
:100B00008C0151CFE3E7F1E01382128288EE93E08B
:100B1000A0E0B0E084839583A683B78384E091E06E
:100B20009183808385EC90E09587848784EC90E0C6
:100B30009787868780EC90E0918B808B81EC90E0AA
:100B4000938B828B82EC90E0958B848B86EC90E08B
:100B5000978B868B118E128E138E148E0895A1E2C0
:100B60001A2EAA1BBB1BFD010DC0AA1FBB1FEE1F27
:100B7000FF1FA217B307E407F50720F0A21BB30B72
:100B8000E40BF50B661F771F881F991F1A9469F7EE
:100B900060957095809590959B01AC01BD01CF014A
:100BA0000895EE0FFF1F0590F491E02D099481E068
:0C0BB00090E0F8940C94DC05F894FFCF62
:100BBC000000000023018C00BB006A01EC00CA009D
:100BCC00DE000D0A00456E747261646173002020B2
:100BDC004E6976656C20416C746F20283129002099
:100BEC00204E6976656C20426169786F2028302927
:100BFC0000496D7072696D6520506F7274612030A0
:100C0C0000496D7072696D6520506F72746120318E
:020C1C000000D6
:00000001FF
