:100000000C9462000C948A000C948A000C948A0070
:100010000C948A000C948A000C948A000C948A0038
:100020000C948A000C948A000C948A000C948A0028
:100030000C948A000C948A000C948A000C948A0018
:100040000C945C030C948A000C942A030C94040313
:100050000C948A000C948A000C948A000C948A00F8
:100060000C948A000C948A000000000024002700F1
:100070002A0000000000250028002B0000000000DE
:1000800023002600290004040404040404040202DA
:100090000202020203030303030301020408102007
:1000A0004080010204081020010204081020000012
:1000B0000008000201000003040700000000000027
:1000C0000000790511241FBECFEFD8E0DEBFCDBF01
:1000D00011E0A0E0B1E0EAEAFBE002C005900D9279
:1000E000AE35B107D9F722E0AEE5B1E001C01D920F
:1000F000A833B207E1F710E0C2E6D0E004C02197D0
:10010000FE010E94C805C136D107C9F70E94A603A7
:100110000C94D3050C940000CF92DF92EF92FF92E3
:100120000F931F93CF93DF936C017A018B01C0E093
:10013000D0E0CE15DF0589F0D8016D918D01D60193
:10014000ED91FC910190F081E02DC6010995892B7C
:1001500011F47E0102C02196ECCFC701DF91CF914F
:100160001F910F91FF90EF90DF90CF900895089529
:1001700080E090E00895FC01538D448D252F30E000
:10018000842F90E0821B930B541710F0CF960895A4
:1001900001970895FC01918D828D981761F0828DF1
:1001A000DF01A80FB11D5D968C91928D9F5F9F73AB
:1001B000928F90E008958FEF9FEF0895FC01918D4D
:1001C000828D981731F0828DE80FF11D858D90E0BA
:1001D00008958FEF9FEF0895FC01918D228D892F57
:1001E00090E0805C9F4F821B91098F73992708953F
:1001F0008BE991E00E94EC0021E0892B09F420E0DA
:10020000822F0895FC01848DDF01A80FB11DA35A30
:10021000BF4F2C91848D90E001968F739927848F26
:10022000A689B7892C93A089B1898C9180648C931D
:10023000938D848D981306C00288F389E02D808108
:100240008F7D80830895EF92FF920F931F93CF933A
:10025000DF93EC0181E0888F9B8D8C8D981305C016
:10026000E889F989808185FD24C0F62E0B8D10E088
:100270000F5F1F4F0F731127E02E8C8DE8120CC0FB
:100280000FB607FCFACFE889F989808185FFF5CFA1
:10029000CE010E940201F1CF8B8DFE01E80FF11D0E
:1002A000E35AFF4FF0820B8FEA89FB8980818062DD
:1002B00007C0EE89FF896083E889F98980818064BD
:1002C000808381E090E0DF91CF911F910F91FF90AB
:1002D000EF900895CF93DF93EC01888D8823C9F0C8
:1002E000EA89FB89808185FD05C0A889B9898C913F
:1002F00086FD0FC00FB607FCF5CF808185FFF2CFDA
:10030000A889B9898C9185FFEDCFCE010E940201A9
:10031000E7CFDF91CF91089580E090E0892B29F01D
:100320000E94F80081110C9400000895833081F040
:1003300028F4813099F08230A1F008958730A9F037
:100340008830B9F08430D1F4809180008F7D03C073
:10035000809180008F7780938000089584B58F7797
:1003600002C084B58F7D84BD08958091B0008F77E1
:1003700003C08091B0008F7D8093B00008951F93DB
:10038000CF93DF93282F30E0F901E255FF4F84919E
:10039000F901E656FF4FD491F901EA57FF4FC49196
:1003A000CC23C9F0162F81110E949601EC2FF0E0AA
:1003B000EE0FFF1FEE58FF4FA591B4918FB7F89441
:1003C000111105C09C91ED2FE095E92302C0EC913D
:1003D000ED2BEC938FBFDF91CF911F910895CF93B9
:1003E000DF9390E0FC01E656FF4F2491FC01EA57B1
:1003F000FF4F8491882361F190E0880F991FFC01E1
:10040000E859FF4FC591D491FC01EE58FF4FA591DB
:10041000B491611109C09FB7F89488812095822317
:100420008883EC912E230BC0623061F49FB7F8945F
:100430003881822F809583238883EC912E2B2C93F7
:100440009FBF06C08FB7F894E8812E2B28838FBFFB
:10045000DF91CF9108950F931F93CF93DF93FC010A
:10046000E958FE4F672B19F081E0808301C01082AC
:100470001091670160E0812F0E94BF01C7E7D1E0C2
:1004800080916301909164019E01275731402817A4
:10049000390784F46991809165010E94BF01009140
:1004A000690161E0802F0E94BF0160E0802F0E94FF
:1004B000BF01E6CF61E0812FDF91CF911F910F91B6
:1004C0000C94BF01009769F0FC0101900020E9F74E
:1004D0003197AF01481B590BBC018BE991E00C949B
:1004E0008C0080E090E00895CF93DF930E94620239
:1004F000EC0182E191E00E9462028C0F9D1FDF916E
:10050000CF9108958F929F92AF92BF920F931F93B6
:10051000CF93DF93CDB7DEB7A1970FB6F894DEBFC8
:100520000FBECDBF19A2423008F44AE08E010F5D24
:100530001F4F842E912CA12CB12CA50194010E9457
:10054000A605E62FB901CA0101501109EA3014F4D9
:10055000E05D01C0E95CD801EC93232B242B252B13
:1005600061F7C8010E946202A1960FB6F894DEBF3F
:100570000FBECDBFDF91CF911F910F91BF90AF9074
:100580009F908F900895CF92DF92EF92FF92CF933A
:10059000DF936B017C01E0919B01F0919C01019044
:1005A000F081E02D6DE28BE991E00995EC01662781
:1005B0007727CB016C197D098E099F094AE00E94BB
:1005C00082028C0F9D1FDF91CF91FF90EF90DF9003
:1005D000CF900895CF93DF93BC01990F880B990BAF
:1005E00097FF03C00E94C30203C04AE00E94820238
:1005F000EC0182E191E00E9462028C0F9D1FDF916D
:10060000CF9108950E94CE051F920F920FB60F92C0
:1006100011242F933F934F935F936F937F938F9307
:100620009F93AF93BF93EF93FF938BE991E00E9469
:100630000201FF91EF91BF91AF919F918F917F91B7
:100640006F915F914F913F912F910F900FBE0F903F
:100650001F9018951F920F920FB60F9211242F938F
:100660008F939F93EF93FF93E091AB01F091AC01D7
:100670008081E091B101F091B20182FD12C09081C0
:100680008091B4018F5F8F732091B501821751F073
:10069000E091B401F0E0E556FE4F958F8093B401F0
:1006A00001C08081FF91EF919F918F912F910F90C9
:1006B0000FBE0F901F9018951F920F920FB60F92BA
:1006C00011242F933F938F939F93AF93BF93809168
:1006D000730190917401A0917501B09176013091F0
:1006E000620123E0230F2D3720F40196A11DB11DD7
:1006F00005C026E8230F0296A11DB11D20936201BB
:100700008093730190937401A0937501B093760167
:1007100080915E0190915F01A0916001B0916101B3
:100720000196A11DB11D80935E0190935F01A0937E
:100730006001B0936101BF91AF919F918F913F9103
:100740002F910F900FBE0F901F901895CF93DF93AE
:10075000CDB7DEB7789484B5826084BD84B58160FE
:1007600084BD85B5826085BD85B5816085BD80917C
:100770006E00816080936E001092810080918100F4
:1007800082608093810080918100816080938100EC
:10079000809180008160809380008091B1008460AE
:1007A0008093B1008091B00081608093B00080910F
:1007B0007A00846080937A0080917A0082608093CE
:1007C0007A0080917A00816080937A0080917A002B
:1007D000806880937A001092C10072E0E72EF12CBD
:1007E000F0926A01E092690185E090E090936801DF
:1007F0008093670186E090E09093660180936501A5
:1008000061E082E00E94EF0161E085E00E94EF017B
:1008100061E086E00E94EF0160E082E00E94BF019B
:1008200061E085E00E94BF0100E110E010936401E7
:1008300000936301F0926C01E0926B0183E090E021
:100840009093700180936F0184E090E090936E012B
:1008500080936D0161E082E00E94EF0161E083E03E
:100860000E94EF0160E084E00E94EF0160E082E01E
:100870000E94BF0160E083E00E94BF0110937201FB
:1008800000937101E091AB01F091AC0182E08083B3
:10089000E091A701F091A8011082E091A901F091E7
:1008A000AA018FEC80831092B301E091AF01F09127
:1008B000B00186E08083E091AD01F091AE018081CE
:1008C00080618083E091AD01F091AE01808188600C
:1008D0008083E091AD01F091AE01808180688083DA
:1008E000E091AD01F091AE0180818F7D808300E0C9
:1008F00010E08DB69EB6A0907101B09072018DB7D8
:100900009EB78A199B090FB6F8949EBF0FBE8DBF84
:10091000EDB7FEB731967F0170906F0161E0872DD2
:100920000E94BF016701C6018E199F098A159B05A8
:100930000CF031C020916D0130916E013327F90127
:10094000E255FF4F8491F901E656FF4F6490F9019B
:10095000EA57FF4F5490552079F081110E9496017B
:10096000E52DF0E0EE0FFF1FE458FF4FA591B49185
:10097000EC916E2281E009F480E0F60181936F0131
:1009800060906B0161E0862D0E94BF0160E0862DC2
:100990000E94BF01C8CF60E0872D0E94BF01F70110
:1009A000E00FF11F80810FB6F8949EBE0FBE8DBE82
:1009B000882319F061E070E002C060E070E0C801D7
:1009C0000E942B020F5F1F4F0031110509F091CFDC
:1009D0002FB7F8948091730190917401A0917501E3
:1009E000B09176012FBF409197015091980160918D
:1009F000990170919A01841B950BA60BB70B89384E
:100A00009341A105B10508F471C085E191E00E9410
:100A1000740207E711E05801C12CD12C760183E262
:100A200091E00E9462024AE0C701B6010E94820280
:100A3000F50181915F01882319F08AE291E002C0FB
:100A400086E391E00E947402FFEFCF1ADF0AEF0AFB
:100A5000FF0A20E1C216D104E104F10401F783E4A6
:100A600091E00E94740280E090E021E030E0F80123
:100A700061918F016203A001639F500D1124840FC7
:100A8000951F220F331FF1E00F371F0781F70E94D8
:100A9000EA0280E591E00E947402EFE7F1E080E075
:100AA00090E021E030E061916203A001639F500D6E
:100AB0001124840F951F220F331F41E0E738F407FC
:100AC00091F70E94EA022FB7F894809173019091F8
:100AD0007401A0917501B09176012FBF80939701A9
:100AE00090939801A0939901B0939A010E948C0170
:100AF000FECEEBE9F1E01382128288EE93E0A0E0F3
:100B0000B0E084839583A683B78384E091E09183EA
:100B1000808385EC90E09587848784EC90E09787CC
:100B2000868780EC90E0918B808B81EC90E0938BBA
:100B3000828B82EC90E0958B848B86EC90E0978B97
:100B4000868B118E128E138E148E0895A1E21A2EAA
:100B5000AA1BBB1BFD010DC0AA1FBB1FEE1FFF1F61
:100B6000A217B307E407F50720F0A21BB30BE40BB1
:100B7000F50B661F771F881F991F1A9469F76095F8
:100B80007095809590959B01AC01BD01CF010895B2
:100B9000EE0FFF1F0590F491E02D099481E090E0A5
:0A0BA000F8940C94D305F894FFCFED
:100BAA000000000023018C00BB006A01EC00CA00AF
:100BBA00DE000D0A002020202020202053616964D5
:100BCA0061730053616964612000204E6976656C27
:100BDA0020416C746F00204E6976656C2042616911
:100BEA00786F0056616C6F7220506F7274203000FB
:0E0BFA0056616C6F7220506F727420310000D3
:00000001FF
